:020000040800F2
:10000000100800208901000877200008031E00085E
:100010007520000871030008D52B000800000000BF
:10002000000000000000000000000000452700085C
:1000300073030008000000005F250008B1270008D6
:10004000A3010008A3010008A3010008A301000800
:10005000A3010008A3010008A3010008A3010008F0
:10006000A3010008A3010008A3010008A3010008E0
:10007000A3010008A3010008A3010008A3010008D0
:10008000A3010008A301000891020008A3010008D1
:10009000A3010008A3010008A3010008A3010008B0
:1000A000A3010008A3010008A3010008A3010008A0
:1000B000A301000821280008A3010008A3010008EB
:1000C000A3010008A3010008A3010008A301000880
:1000D000A3010008A3010008BD2B0008C92B0008DC
:1000E000A3010008A3010008A301000800F002F822
:1000F00000F03AF80AA090E8000C82448344AAF188
:100100000107DA4501D100F02FF8AFF2090EBAE885
:100110000F0013F0010F18BFFB1A43F0010318473B
:100120006C3500008C350000103A24BF78C878C1C7
:10013000FAD8520724BF30C830C144BF04680C60ED
:10014000704700000023002400250026103A28BF35
:1001500078C1FBD8520728BF30C148BF0B60704739
:100160001FB51FBD10B510BD00F058F81146FFF7C0
:10017000F7FF02F041FD00F076F803B4FFF7F2FF5D
:1001800003BC00F07DF8000009488047094800479B
:10019000FEE7FEE7FEE7FEE7FEE7FEE7FEE7FEE737
:1001A000FEE7FEE704480549054A064B7047000094
:1001B0001D280008ED000008100200201008002093
:1001C00010040020100400204FF0000200B5134678
:1001D00094469646203922BFA0E80C50A0E80C5067
:1001E000B1F12001BFF4F7AF090728BFA0E80C5018
:1001F00048BF0CC05DF804EB890028BF40F8042B11
:1002000008BF704748BF20F8022B11F0804F18BF7D
:1002100000F8012B7047704770477047754600F033
:100220002BF8AE4605006946534620F00700854688
:1002300018B020B5FFF7B6FFBDE820404FF000062C
:100240004FF000074FF000084FF0000B21F00701BE
:10025000AC46ACE8C009ACE8C009ACE8C009ACE801
:10026000C0098D46704710B50446AFF300802046A4
:10027000BDE81040FFF781BF00487047AC01002087
:1002800001491820ABBEFEE72600020070470000BF
:10029000014800F005B900005C00002070B504467C
:1002A00000688168C943C90717D1816821F001013D
:1002B000816000F0A7FC05460AE000BF00F0A2FC48
:1002C000401B022804D920688068C043C00706D0BC
:1002D00020688068C043C007F0D0002070BDA06ACD
:1002E00040F01000A062E06A40F00100E0620120EE
:1002F00070BD0000F8B500260446009600688168CD
:10030000C943C9072DD0816841F0010181601648B9
:1003100016490068B0FBF1F000E0401E0090002894
:10032000FBD100F06FFC054616E000BF00F06AFC50
:10033000401B022810D920688068C043C0070BD03A
:10034000A06A40F01000A062E06A40F00100E062A4
:1003500084F824600120F8BD20688068C043C0078D
:10036000E4D10020F8BD00000C00002040420F0046
:10037000FEE7704772B6FEE710B5064800F070FA67
:100380004FF0FF31034800F0CDF9BDE810400148BF
:1003900000F083B85C00002070470000F8B500242E
:1003A000009490F824202546012A12D0012280F8DA
:1003B00024204A681F23072A0DD20668776B521E35
:1003C00002EB820293409F430B6893401F43776385
:1003D00019E00220F8BD06680D2A0AD2376BD21F39
:1003E00002EB820293409F430B6893401F433763A5
:1003F00009E0F76A0D3A02EB820293409F430B68D3
:1004000093401F43F7620A68072306680A2A0AD343
:10041000F7680A3A02EB420293409F438B6893408D
:100420001F43F76008E0376902EB420293409F43A5
:100430008B6893401F4337610A68102A01D0112A44
:1004400020D1124B02689A4217D193681B0219D42B
:10045000936843F4000393600968102912D10C4992
:100460000C4A0968B1FBF2F101EB8101490000E09F
:10047000491E00910029FBD104E0816A41F020016E
:100480008162012480F824502046F8BD00240140F8
:100490000C00002040420F0070470068C06C70479D
:1004A00070B50446006806684568A90625D5B107F9
:1004B00023D5A16AC90603D4A16A41F40071A162DF
:1004C0008168C1F34241072910D1217B71B941688C
:1004D00021F020014160A06A20F48070A062A06A2F
:1004E000C00403D4A06A40F00100A0622046FFF7D8
:1004F000D3FF21686FF01200086028062ED5700720
:100500002CD5A06AC00603D4A06A40F40050A062B3
:1005100020688168C1F30231072909D04168490583
:1005200015D48168C1F34241072910D1217B71B9EB
:10053000416821F080014160A06A20F48050A062EF
:10054000A06AC00503D4A06A40F00100A062204662
:10055000FFF722FF21686FF00C00086068060CD5D9
:10056000F0070AD0A06A40F48030A062204600F074
:1005700093F821686FF00100086070BD2DE9F0412B
:100580004FF0000704003D467ED0A06A002628B93F
:10059000E66284F82460204600F080F82046FFF7E9
:1005A0007DFEA16AC90600D420B1A06A40F0100007
:1005B000A06269E0A16A21F4885141F00201A162C0
:1005C0006268E169237B0A4347EA43010A43A16861
:1005D0004FF48077B94209D0012907D05FF00001BC
:1005E00094F814C0BCF1010F02D00AE03946F7E7D5
:1005F000F3B1A36A43F02003A362E36A43F001036B
:10060000E3622368D3F804C02CF4694C4CEA010C73
:10061000C3F804C021688B68DFF870C003EA0C03DC
:1006200013438B60A168B9420BD0012909D00CE0BB
:10063000DFF85CC0A3690CEB43330B4343F4006168
:10064000DFE7218A0D05A5F580152168CB6A23F423
:1006500070032B43CB62216889680E4B194091428D
:1006600008D1E662A16A21F0020141F00101A16214
:10067000BDE8F081A06A20F0020040F01000A06206
:10068000E06A40F00100E0620120F1E7FDF7E1FFE0
:1006900000E0FFFFFE0E1FFF7047000010B586B0A0
:1006A000002100910191029103910068194988424B
:1006B0002ED11948816941F400718161816901F489
:1006C00000710491816941F004018161816901F047
:1006D00004010491816941F008018161806903246A
:1006E00000F0080004900120CDE9000469460B48A1
:1006F00000F086F9009469460948019400F080F9F9
:1007000000220321122000F0E9FA122000F0D8FAAA
:1007100006B010BD00240140001002400008014056
:10072000000C01402DE9F84300270D4604460097D0
:1007300000F068FA804620688168C90508D5A06A7B
:1007400040F02000A06284F824700120BDE8F88306
:100750004168C90503D4C06A10F4700F2AD0022082
:1007600000F0EEFA3B490968B1FBF0F62068036936
:1007700039490B424FEA61014FEAA1121FD1C36808
:100780004FEA611C13EA0C0F19D103690B4225D102
:10079000C068104222D1142023E0681C0AD02DB179
:1007A00000F030FAA0EB0800A84203D920680068E6
:1007B000800725D5206800688007EED52DE0036905
:1007C0000B4202D1C168114206D0026923490A4294
:1007D00006D1C068084203D1542002E0292000E07D
:1007E000FC204643009816E0681C11D02DB100F0A3
:1007F00009FAA0EB0800A8420AD90098B04207D233
:10080000A06A40F00400A06284F8247003209DE7F1
:100810000098401C0090B042E6D321686FF01200AF
:100820000860A06A40F40070A06220688068C0F38D
:10083000424007280CD1207B50B9A06A20F4807078
:10084000A062A06AC00403D4A06A40F00100A062C4
:1008500000207BE70C0000202449922449922400C8
:1008600070B5044690F8240001280DD0012084F8CA
:1008700024002046FFF73EFD02004FF0000005D0A7
:1008800084F82400104670BD022070BDA16A40F2B9
:100890000123994341F48071A1621F4D23681F49D0
:1008A000AB4218D10E6816F4702F14D0A66A46F425
:1008B0008016A6620E68760505D5A66A26F400564F
:1008C00046F48056A662A66AF6040AD5E66A26F0C1
:1008D0000606E66206E0A66A26F48016A6625E6850
:1008E000E9E7E06284F824006FF0020018602068F5
:1008F0008368C3F34243072B05D1A84208D1096896
:1009000011F4702F04D0816841F480118160B9E73F
:10091000816841F4A001F9E7002801400424014066
:1009200010B590F821100022022905D0042181631E
:1009300080F82020012010BD01680B6823F00E0311
:100940000B6001680B6823F001030B6090F84030E6
:10095000C46B012101FA03F3636080F8211080F871
:100960002020104610BD000010B590F82110002482
:10097000022903D00421816301243DE001680A6853
:1009800022F00E020A6001680A6822F001020A6081
:100990001A4A0168914201D1012121E0174A14321B
:1009A000914201D110211BE0144A2832914201D119
:1009B000891515E0114A3C32914201D189140FE0AA
:1009C0000E4A5032914202D14FF4803108E00B4A76
:1009D0006432914202D14FF4801101E04FF08071F6
:1009E000064A083A5160012180F82110002180F860
:1009F0002010416B01B18847204610BD080002401D
:100A00002DE9F84FDFF8B8910024A9F1040B234633
:100A10000F2709F1040AABF1040EC9E00125A54036
:100A20002A40AA427DD1674ED1F804C0ACEB06083B
:100A3000B44532D014DCBCF1030F3AD009DCBCF170
:100A4000000F2AD0BCF1010F1CD0BCF1020F31D134
:100A50001DE0BCF1110F17D0BCF1120F2AD119E023
:100A6000B8F5881F19D006DCB8F5803F15D0B8F569
:100A7000801F1FD111E0B8F5001F0ED0B8F5041F7C
:100A800018D10AE0CB6815E0CB681B1D12E0CB68DB
:100A900008330FE0CB680C330CE08B682BB1012BD3
:100AA0004FF0080303D0456104E0042302E0056130
:100AB00000E00023FF2A01D8064601E000F1040609
:100AC0004FEA840501D9A5F12005D6F8008007FA80
:100AD00005FC28EA0C0803FA05F548EA0508C6F8FB
:100AE00000804D68ED0062D5374DAE6946F00106D5
:100AF000AE61AD6924F0030605F001050095334DA4
:100B000006EB050CDCF80850A607360F07FA06F8C6
:100B100025EA0805DFF8B880404503D14FF000080A
:100B200017E044E0DFF8AC80404502D14FF0010807
:100B30000FE0DFF8A480404502D14FF0020808E042
:100B4000DFF89880404502D14FF0030801E04FF0F4
:100B5000040808FA06F848EA0508CCF808804D6849
:100B6000D9F80060ED024D4601D5164300E09643EA
:100B70002E604D68DAF80060AD02554601D5164387
:100B800000E096432E604D68DBF80060AD035D46E3
:100B900001D5164300E096432E604D68DEF80060F4
:100BA000ED03754601D5164300E096432E60641CA4
:100BB0000D682A46E5407FF431AFBDE8F88F0000AC
:100BC0000804014000001110001002400000014024
:100BD00000080140000C01400010014000140140D9
:100BE0008068084000D001207047C26821EA0203F3
:100BF0000A4043EA0241016170470AB1016170474E
:100C00000904FBE7014880687047000000000020ED
:100C1000024881680278114481607047000000201A
:100C2000074810B5016841F010010160032000F091
:100C300075F80F2000F006F800F024F8002010BD31
:100C40000020024070B50D4D04464FF47A712878AB
:100C5000B1FBF0F00A490968B1FBF0F000F0A4FB29
:100C600048B9102C07D200222146501E00F036F859
:100C700000206C6070BD012070BD000000000020ED
:100C80000C0000200C4808B5816941F00101816128
:100C9000816901F001010091C16941F08051C16198
:100CA000C06900F0805000900448416821F0E06184
:100CB00041F00071416008BD001002400000014099
:100CC000002809DB00F01F0201219140400980004B
:100CD00000F1E020C0F8001170470000F0B40E4BA6
:100CE0001B680C46C3F30223C3F10705042D00D98A
:100CF0000425191D072901D2002300E0DB1E01266F
:100D000006FA05F1491E214099409E40761E164084
:100D10003143F0BC01F05FBF0CED00E0064900F08C
:100D2000070208684FF6FF03184040EA0220034A12
:100D300010430860704700000CED00E00000FA0569
:100D400010B501460020234C012922D0022939D0B8
:100D500010291DD161682268D20119D51E48C1F33E
:100D60008342C903805C0AD561681B4AC1F34041D4
:100D7000921E515C194AB2FBF1F1484301E0184957
:100D800048436168490203D440000321B0FBF1F0FD
:100D900010BD226AC2F30121012903D1920701D5B6
:100DA000C80310BD022905D1626A920702D549F62F
:100DB000404010BD0329FCD121688903F9D54FF2C9
:100DC000244010BD00F02AF96168C1F38131491C4B
:100DD0004900DBE7001002405E30000800127A0094
:100DE00000093D002DE9F84305460078354CC00761
:100DF00054D0E0690026C00008D4E06940F080507B
:100E0000E061E069012600F0805000902E48016802
:100E1000C90512D40168804641F480710160FFF772
:100E2000F1FE074605E000BFFFF7ECFEC01B64289B
:100E300023D8D8F80000C005F6D5206A10F4407019
:100E400021D0A98801F4407181421CD0206A1F4939
:100E5000012220F440700A6000220A602062C0076C
:100E600011D0FFF7CFFE074641F2883808E000BFF7
:100E7000FFF7C8FEC11B414502D90320BDE8F88336
:100E8000206A8007F4D5206A696820F4407008431E
:100E900020621EB1E06920F08050E0612878800770
:100EA00005D56068A96820F4404008436060287850
:100EB000C00605D56068E96820F4800008436060DA
:100EC0000020DBE700100240007000404004424276
:100ED0002DE9F0470F46050061D0434E306800F021
:100EE0000700B84209D2306820F00700384330606C
:100EF000306800F00700B84251D128683B4C8107A8
:100F000012D5400703D5606840F4E060606028783F
:100F1000000703D5606840F4605060606068A968AD
:100F200020F0F000084360602878C00728D0686887
:100F3000012810D02168022810D0890700292EDA54
:100F4000616821F0030101436160FFF75BFE8046A9
:100F500041F288390DE021688903EFE78901EDE767
:100F6000FFF750FEA0EB0801494502D90320BDE878
:100F7000F0876068696800F00C00B0EB810FEFD17A
:100F8000306800F00700B8420BD9306820F0070045
:100F900038433060306800F00700B84201D00120CB
:100FA000E5E72878400705D56068E96820F4E06047
:100FB000084360602878000706D56068296920F436
:100FC000605040EAC100606000F038F86168084A8B
:100FD000C1F30311515CC840064908600648006827
:100FE000FFF730FE0020C2E7002002400010024060
:100FF0006E3000080C000020040000200448054961
:1010000000684968044AC1F30221515CC840704736
:101010000C000020001002407E3000080448054902
:1010200000684968044AC1F3C221515CC840704756
:101030000C000020001002407E3000080E4A51686B
:101040000E4801F00C03042B11D0082B0FD10C48D3
:10105000C1F38343C903C05C0AD55168084AC1F390
:101060004041921E515C054A5043B0FBF1F070477D
:1010700004494843704700000010024000127A0003
:101080004C30000800093D002DE9F84F040070D0F5
:101090002078C04DC00749D06868C0F3810001289E
:1010A00007D06868C0F38100022809D16868C003CE
:1010B00006D52868800339D560680028E7D035E078
:1010C0006068B0F5803F0BD010B1B0F5A02F11D003
:1010D000286820F480302860286820F4802002E00E
:1010E000286840F480302860606890B1FFF78AFD7E
:1010F00006460AE0286840F480202860F0E700BF38
:10110000FFF780FD801B642873D828688003F7D51B
:101110000CE0FFF777FD064605E000BFFFF772FD24
:10112000801B6428F0D828688003F7D420789A4E72
:1011300080074FF001094FF0000839D5686810F0BA
:101140000C0F07D06868C0F38100022809D16868D5
:10115000C00306D42868800714D52069012808D167
:1011600010E02069B0B1C6F80090FFF74BFD0746CC
:1011700005E00AE1FFF746FDC01B0228C4D8286835
:101180008007F7D52868616920F0F80040EAC100BF
:1011900028600DE0C6F80080FFF734FD074604E044
:1011A000FFF730FDC01B022823D828688007F7D43A
:1011B000207800072CD57948A169D9B1C0F80090F2
:1011C000FFF720FD074604E0FFF71CFDC01B0228C7
:1011D0000FD8686A8007F7D571484FF4FA51006854
:1011E000B0FBF1F0009000BF0098411E0091FAD2D0
:1011F0000EE080E0C0F80080FFF704FD074604E041
:10120000FFF700FDC01B022875D8686A8007F7D475
:101210002078400760D5E8690027C00008D4E86955
:1012200040F08050E861E869012700F080500090AC
:101230005C480168C90513D40168834641F4807194
:101240000160FFF7DFFC824606E000BFFFF7DAFC33
:10125000A0EB0A0064284ED8DBF80000C005F5D5E5
:10126000E06801280AD008B1052813D0286A20F0C8
:1012700001002862286A20F0040002E0286A40F099
:1012800001002862E06841F2883B98B1FFF7BAFCA0
:1012900082460BE0286A40F004002862EEE700BFB7
:1012A000FFF7B0FCA0EB0A0159455AD8286A80071D
:1012B000F6D50CE0FFF7A6FC824605E0FFF7A2FC9E
:1012C000A0EB0A0159454CD8286A8007F6D41FB113
:1012D000E86920F08050E861E06988B36968C1F38B
:1012E0008101022944D00228C6F8608004D0FFF7AB
:1012F00089FC044638E034E0FFF784FC074604E04C
:10130000FFF780FCC01B02282BD828688001F7D487
:10131000206AB0F5803F05D16868A16820F40030EC
:1013200008436860D4E908010843696821F474112E
:1013300008436860C6F86090FFF764FC044606E066
:1013400025E000BFFFF75EFC001B022809D82868D3
:101350008001F7D51BE000BFFFF754FC001B0228FB
:1013600002D90320BDE8F88F28688001F4D40EE08C
:101370000128F7D06868226A00F48031914204D1D4
:10138000616A00F47010884201D00120EAE7002071
:10139000E8E70000001002400000424280044242A0
:1013A0000C0000200070004010B5401EB0F1807F9E
:1013B00001D3012010BD4FF0E02460610F216017C0
:1013C00001F009FC0020A06107202061002010BD71
:1013D0007047704770B590F83C20012A26D0012450
:1013E00080F83C40022280F83D2003685A689D68DE
:1013F00022F070060A6832435A600D4B02689A4226
:1014000008D0B2F1804F05D00A4B9A4202D00A4B65
:101410009A4204D1496825F080031943916080F80D
:101420003D40002180F83C10084670BD022070BD90
:10143000002C0140000400400008004010B50400EA
:1014400003D094F83D0010B107E0012010BD00204A
:1014500084F83C00204600F01FF8022084F83D008C
:10146000211D206801F0E2F9012084F8460084F88B
:101470003E0084F83F0084F8400084F8410084F87E
:10148000420084F8430084F8440084F8450084F85E
:101490003D00002010BD000008B500680B498842DF
:1014A00012D10B48C16941F00201C161C06900223B
:1014B00000F00200009002211D20FFF70FFCBDE8A4
:1014C00008401D20FFF7FCBB08BD000000040040E1
:1014D0000010024090F83D10012901D00120704712
:1014E000022180F83D100168CA6842F00102CA601A
:1014F00000680B49884208D0B0F1804F05D00949F7
:10150000884202D00849884204D1816801F007016D
:10151000062903D0016841F00101016000207047F5
:10152000002C0140000400400008004070B5044653
:1015300090F83C000025012817D0012684F83C6073
:10154000022084F83D002068826822F0770222F4AD
:101550007F4282600868502838D00DDC20284FD0A8
:1015600005DC90B3102811D14AE0022070BD30286C
:1015700046D040280AD13BE060282FD070280DD0FB
:10158000B0F5805F03D0B0F5005F12D0012584F87C
:101590003D60002084F83C00284670BDCB68D1E94E
:1015A0000121206801F07EF92068816841F077010F
:1015B00009E0CB68D1E90121206801F073F92068C6
:1015C000816841F480418160E1E719E0CA684968B7
:1015D000206801F079F95021206806E0CA6849685E
:1015E000206801F082F96021206801F065F9CEE7FA
:1015F000CA684968206801F067F940212068F4E76B
:10160000226801461046F0E770472DE9F041044694
:101610000068C66805694FF00007A90713D5B10730
:1016200011D5F91E016101202077206880698007AB
:10163000204602D0FFF7E8FF04E000F07EF82046E5
:1016400000F07CF82777680716D5700714D5216855
:101650006FF004000861022020772068806910F490
:10166000407F204602D0FFF7CFFF04E000F065F88E
:10167000204600F063F82777280715D5300713D5E3
:1016800021686FF008000861042020772068C06995
:101690008007204602D0FFF7B7FF04E000F04DF8C6
:1016A000204600F04BF82777E80616D5F00614D54B
:1016B00021686FF010000861082020772068C06959
:1016C00010F4407F204602D0FFF79EFF04E000F0B8
:1016D00034F8204600F032F82777E80708D0F00702
:1016E00006D021686FF001000861204600F028F85C
:1016F000280608D5300606D521686FF080000861FD
:101700002046FFF765FE680608D5700606D52168F5
:101710006FF040000861204600F07EF8A8060AD568
:10172000B00608D521686FF0200008612046BDE8AA
:10173000F041FFF74EBEBDE8F081704770470000F2
:1017400070B53149314C884236D1314D002600BF49
:10175000FEF712FE45F82600761C032EF8DB2A68F9
:1017600040F6B8304FF47A71824201D3042202E08D
:10177000B2FBF1F2521C62606A68824201D303201C
:1017800001E0B2FBF1F0A060E268D5F8081000209B
:1017900040F233334343994206D3431C40F233357E
:1017A0006B43994200D80246401C0528F0DBE260FA
:1017B000D4E9010100F0FAFEA068012822DBE0680C
:1017C00000281FDD134D40212846FFF709FA08B114
:1017D000002306E080212846FFF702FA002811D0F6
:1017E0000123241D94E80700241F01F091F8D4E997
:1017F000010100F0B5FE241D94E80700BDE870402B
:1018000000F0D4BE70BD00008C000020100000204D
:1018100050000020000C01407047704770470000E6
:10182000F8B5016804460868CA684B6910F00F0FE4
:101830004FF0000559D003F0010602F490773743CA
:1018400065D0C10705D0D10503D5616C41F0010118
:101850006164410705D5D90703D0616C41F00201ED
:101860006164810705D5D90703D0616C41F004019B
:101870006164010707D502F02001314303D0616C98
:1018800041F008016164616C00293AD0800604D5FA
:10189000900602D5204601F080F820684069616C0E
:1018A000C0F38010090700D460B3204601F04EF861
:1018B00020684069400621D52068143050E8001F98
:1018C00021F0400140E80012002AF5D1E06BA8B1F8
:1018D0006D494163E06BFFF747F8002811D0E06BDA
:1018E000416B01B0BDE8F040084783060FD5930671
:1018F0000DD52046BDE8F84001F04FB82046FFF76F
:101900008DFFF8BD2046FFF789FF6564F8BD266BA3
:101910002023012E7CD1C6067AD5D60678D5086854
:101920004868009048694FF00206400640D5E16BD8
:10193000086840680004000CE8D0A28D8242E5D916
:10194000E085886920282DD020680C3050E8001FE1
:1019500021F4807140E80012002AF5D1206814308B
:1019600050E8001F21F0010140E80012002AF5D1E3
:101970002068143050E8001F21F0400140E80012B8
:10198000002AF5D184F84230256320680C3050E8F5
:10199000001F21F0100140E80012002AF5D1E06B91
:1019A000FEF7BEFF6663A08DE18D401A81B22AE08A
:1019B000A08DE18D401A81B2E08D0028A6D00029CB
:1019C000A4D022680C3252E8000F20F4907042E854
:1019D0000007002FF5D12068143050E8002F22F0C6
:1019E000010240E80027002FF5D184F8423025633A
:1019F00020680C3050E8002F22F0100240E800234D
:101A0000002BF5D166632046FFF707FFF8BDFFE71F
:101A100005062BD5150629D594F841002128F5D1C6
:101A2000A068B0F5805F01D12069B0B1206A411C87
:101A30002162216800784860E08C401E0004000CA0
:101A4000E084E3D12068C16821F08001C160206892
:101A5000C16841F04001C160D8E7206A0088C0F346
:101A600008004860206A801C2062E5E74006CDD56A
:101A70005006CBD5CA68204622F04002CA6084F8DE
:101A8000413000F0BDF9C1E73D29000870B5040000
:101A900004D094F84100002510B106E0012070BD8B
:101AA00084F84050204600F023F8242084F84100B8
:101AB0002068C16821F40051C160204600F0CEFFCB
:101AC0002068016921F4904101612068416921F099
:101AD0002A0141612068C16841F40051C160656418
:101AE000202084F8410084F842006563002070BD26
:101AF000F0B585B000240094019402940394036827
:101B00003F4F02203F4903223F4D4602BB4220D1B6
:101B10008B6943F480438B618B6903F480430493A6
:101B20008B6943F004038B618969039201F004011E
:101B300004910102CDE9001069462846FEF760FFD6
:101B4000CDE90064694628460294FEF759FF05B0C6
:101B5000F0BD2E4FBB4226D1CB6943F40033CB619D
:101B6000CB6903F4003304938B6943F004038B6166
:101B70008969039201F0040104910421CDE9001068
:101B800069462846FEF73CFF0820CDE90004694677
:101B900028460294FEF734FF002211462620FFF764
:101BA0009DF8262028E01A4DAB42D0D1CB6943F4F2
:101BB0008023CB61CB6903F4802304938B6943F0CA
:101BC00008038B618969134D01F00801CDE90321F8
:101BD000CDE9006069462846FEF712FFE814CDE91A
:101BE0000004694628460294FEF70AFF00220121FC
:101BF0002720FFF773F82720FFF762F8A7E7000018
:101C0000003801400010024000080140004400403C
:101C100000480040000C01402DE9F84F044690F8C0
:101C200042009A4616460D46202802D00220BDE802
:101C3000F88FB5B1AEB100206064222184F8421063
:101C40002063FEF7DFFFA6858146E685A0684FF496
:101C500080582027404501D1206920B12E4600251B
:101C600029E00120E3E7002625E04B460022202161
:101C70002046CDF800A000F068FF18B184F842704B
:101C80000320D4E726B1A06840451AD038B108E057
:101C900020684068C0F3080025F8020B08E02069BE
:101CA00078B12068406800F07F0000BF06F8010BA3
:101CB000E08D401EE085E08D0028D6D184F842708A
:101CC000B5E720684068F1E790F84230202B01D05A
:101CD0000220704721B11AB10023036300F01ABF3C
:101CE0000120704770B50068194988422ED141140F
:101CF0001848FEF77AFF184C25462078662809D048
:101D000004DC302809D062280CD103E06C2801D013
:101D1000722807D100F018FD11E00146627868686A
:101D200000F028FD217801F11400282807D8686800
:101D3000002804DB042802DC627800F01BFDBDE80B
:101D40007040022204490548FFF7BEBF70BD000085
:101D50000044004000100140100000201C01002041
:101D60002DE9F843044690F84100984616460D4682
:101D7000202802D00220BDE8F88385B17EB1002082
:101D80006064212084F84100FEF73CFFA684814670
:101D9000E684A0682027B0F5805F02D003E0012030
:101DA000E9E7206910B12E4600250EE000260CE080
:101DB0008021204600F0C9FEA8B9C6B116F8010B73
:101DC00021684860E08C401EE084E08C4B464FF078
:101DD0000002CDF800800028EAD14FF040012046F3
:101DE00000F0B3FE40B184F841700320C3E735F83A
:101DF000020BC0F30800E3E784F841700020BAE763
:101E00007047FEE710B50B4C012280212046FEF7FB
:101E1000F4FE012220212046FEF7EFFE01220821D8
:101E20002046FEF7EAFE20460122BDE810400221CE
:101E3000FEF7E3BE00080140FEB500241C480094F4
:101E400001941A4902940160891581600473012587
:101E50000575032606614FF460214460C0E9065110
:101E6000FEF78CFB08B1FEF785FA0920CDE90005E5
:101E7000694602940E48FEF791FA08B1FEF77AFA25
:101E8000082000900220019069460948FEF786FA72
:101E900008B1FEF76FFACDE9004669460448FEF73F
:101EA0007DFA002801D0FEF765FAFEBD002401404E
:101EB0005C0000202DE9F04186B000242548009404
:101EC000019402940394816941F010018161816958
:101ED00001F010010491816941F00401816181697F
:101EE00001F004010491816941F008018161806978
:101EF000194F00F008004FF40055049000222946C5
:101F00003846FEF77AFEDFF854804FF44046002250
:101F100031464046FEF771FE0120CDE90050022512
:101F200069463846CDE90245FEF76AFD01AA11204F
:101F3000009682E8310069464046FEF761FDC02008
:101F40008DE8310069464046FEF75AFD06B0BDE80F
:101F5000F08100000010024000100140000C014020
:101F600010B586B00024184800940194029403949C
:101F7000049414490594016040F21F31C0E9011432
:101F800040F2E731C0E9031480218161FFF756FA7E
:101F900008B1FEF7EFF94FF48050009069460A4807
:101FA000FFF7C4FA08B1FEF7E5F92020CDE90404F3
:101FB00004A90548FFF70EFA002801D0FEF7DAF968
:101FC00006B010BD000400408C0000200C4810B585
:101FD0000A4901604FF4E1314160002181600C2227
:101FE000C160C0E904128161C161FFF74FFD0028A3
:101FF00003D0BDE81040FEF7BDB910BD0038014068
:10200000D40000200C4810B50A4901604FF4E131BA
:102010004160002181600C22C160C0E9041281612D
:10202000C161FFF733FD002803D0BDE81040FEF783
:10203000A1B910BD004400401C0100200C4810B59F
:102040000A4901604FF4E1314160002181600C22B6
:10205000C160C0E904128161C161FFF717FD00286A
:1020600003D0BDE81040FEF785B910BD0048004020
:1020700064010020FEE7FEE770B500240021204641
:1020800000F0E3F80025002000F058FA6D1CEDB2D6
:10209000802DF8D3641CE4B2082CEFD370BD00008F
:1020A00010B5064C012291032046FEF7A6FD2046FE
:1020B0000122BDE81040D103FEF79FBD000C014096
:1020C0002DE9F047174E074600244FF080084FF4E3
:1020D00000494FF4804500BF28FA04F0384201D08F
:1020E000012200E0002249463046FEF786FD01222B
:1020F00029463046FEF781FD002229463046FEF78C
:102100007CFD641CE4B2082CE6D30122294630464B
:10211000FEF773FD29463046BDE8F0470022FEF782
:102120006CBD0000000C014070B501220B4DD403C2
:1021300021462846FEF761FD0122960331462846D6
:10214000FEF75BFD002221462846FEF756FD31468C
:102150002846BDE870400022FEF74FBD000C01404C
:1021600070B50A4D4FF40044002221462846FEF780
:1021700044FD012291032846FEF73FFD21462846F3
:10218000BDE870400122FEF738BD0000000C0140A0
:1021900010B500204FF47A720021491C9142FCD303
:1021A000401C9042F8D3FFF77BFFAE2000F0B5F95A
:1021B000D52000F0B2F9802000F0AFF9A82000F09F
:1021C000ACF93F2000F0A9F9D32000F0A6F90020D7
:1021D00000F0A3F9402000F0A0F9A12000F09DF943
:1021E000C82000F09AF9DA2000F097F9122000F0E8
:1021F00094F9812000F091F9CF2000F08EF9D920D8
:1022000000F08BF9F12000F088F9DB2000F085F96F
:10221000302000F082F9A42000F07FF9A62000F021
:102220007CF98D2000F079F9142000F076F9AF20C8
:1022300000F073F9BDE81040FFF71EBF0246012011
:1022400000E05043491EFCD2704710B50C4640F0E8
:10225000B00000F062F9102040EA141000F05DF9BF
:1022600004F00F00BDE8104000F057B92DE9F0412F
:102270000746CE004000083E801E15464FF0FF384E
:10228000F1B2C0B2FFF7E1FF1148002400EB0515E1
:102290002819A0F5805090F8000E00F04FF9641C4A
:1022A000E4B2082CF4D308EB4700F1B2C0B2FFF758
:1022B000CCFF00242819A0F5805090F8080E00F0FB
:1022C0003DF9641CE4B2082CF4D3BDE8F0810000B1
:1022D000863000082DE9FF5F0D46DDE90E711446DA
:1022E00000263C4ADFF8F0B09A4605F1010884F078
:1022F0000049012916D0002969D1944207D32D2223
:1023000029460098FFF7B2FF08F0FF054C4620462B
:1023100000F020FD804600F039FD214600F016FE59
:10232000044639E0944207D32D222946009800F054
:1023300077F808F0FF054C46204600F00BFD80467C
:1023400000F024FD214600F001FE044604E0594659
:1023500000F030FD0446761CBE42F8DB5346424690
:102360002946009800F092F85544E9B22E220098D0
:1023700000F056F8204600F0EDFC024600986D1C77
:1023800004B0E9B23B46BDE8F05F00F07FB85946C3
:1023900000F010FD0446761CBE42F8DB5346424670
:1023A0002946009800F01AF85544E9B22E22009808
:1023B000FFF75CFF204600F0CDFC024600986D1C44
:1023C00004B0E9B23B46BDE8F05F00F007B8BDE8F5
:1023D000FF9F000000008080000020412DE9F047B1
:1023E00000241D461646884681460A2713E0291B0D
:1023F0000A20491EFFF722FFB6FBF0F0B0FBF7F111
:1024000007FB110208EB0400C1B248463032FFF767
:102410002DFF641CE4B2AC42E9D3BDE8F0870000B4
:102420002DE9FF4106461848002300EB02106C46D8
:10243000C218A2F5805292F8002ED243E2545B1CDF
:10244000102BF5DBCF007000083F801E4FF0FF38E7
:10245000F9B2C0B2FFF7F9FE0025605D00F06EF83A
:102460006D1C082DF9DB08EB4600F9B2C0B2FFF78E
:10247000ECFE00256019007A00F060F86D1C082D54
:10248000F8DBBDE8FF810000863000082DE9F04749
:1024900000241D461646884681460A2713E0291B5C
:1024A0000A20491EFFF7CAFEB6FBF0F0B0FBF7F1B9
:1024B00007FB110208EB0400C1B248463032FFF7B7
:1024C000AFFF641CE4B2AC42E9D3BDE8F0872DE96C
:1024D000F04115460E460746002406E03019C1B209
:1024E0003846FFF79DFF641CE4B22A5D002AF5D14F
:1024F000BDE8F0812DE9F04115460E46074600245F
:1025000006E03019C1B23846FFF7B0FE641CE4B2F1
:102510002A5D002AF5D1BDE8F08110B50446FFF729
:1025200003FE7820FFF7CCFD0020FFF7C9FD204611
:10253000FFF7C6FDBDE81040FFF712BE10B5044618
:10254000FFF7F2FD7820FFF7BBFD4020FFF7B8FD55
:102550002046FFF7B5FDBDE81040FFF701BE70470C
:10256000F8B505460D480C464FF0FF3600680C4F95
:10257000009005E03346042269460A48FFF74CFB09
:102580000098B842F6D0084A05EB450102EB8101FC
:1025900001EB840141F8100CF8BD000088360008FA
:1025A000000080BFD4000020200000202DE9FC5F47
:1025B000154689460446012806D0022C06D0032C75
:1025C00021D0042C07D120E051A200E052A2062124
:1025D0000120FFF78FFF524904EB440248464FF0B9
:1025E000020B01EB8208B9F1010F10D002281FD0B5
:1025F000B9F1030F4BA24FF001014FF0040025D0B9
:10260000FFF778FF24E048A2E1E749A2DFE74AA20A
:1026100001210220FFF75BFF48A201210320FFF701
:1026200069FF40A201210420FFF764FF01241CE0A0
:1026300042A201210320FFF74AFF3FA2012102200D
:10264000FFF758FF012137A2042009E0FFF73FFF01
:1026500039A201210220FFF74DFF38A201210320FA
:10266000FFF748FF0124A14540D10121CDE900B188
:1026700008EB8406671C56F8102DF8B202230421DB
:10268000FFF728FE306810F1FF4F3CD26A1E2C493C
:10269000C5F104064FF00A0A012A0FD800F08AFBA0
:1026A00000F058FB0346304600F0E6FA93FBF0F1E9
:1026B00091FBFAF20AFB1212E81C11E0EA1E012A51
:1026C00021D800F077FB00F045FB0346304600F0D0
:1026D000D3FA93FBF0F191FBFAF20AFB1212281DD8
:1026E000C1B2F8B20123FFF779FE0CE00021CDE979
:1026F00000B108EB8400022350F8102C601CC0B21B
:102700000421FFF7E7FD641C032CACDDBDE8FC9F52
:102710004D4F544F522031004D4F544F52203200F4
:10272000200000206B643A004D4F544F522033007C
:102730004D4F544F522034006B703A006B693A0091
:102740000000C842704700001CB503218DF800103E
:102750008DF801000220002269460A54401C04281A
:10276000FBDD4FF0FF3305220148FFF7F9FA1CBDEE
:10277000D40000201CB5431E032B15D8002913DDFF
:10278000142911DA01238DF800308DF801008DF83D
:10279000021000208DF803208DF80400431E05224E
:1027A00069460248FFF7DCFA1CBD0000D400002097
:1027B000FEF72EBA30B593B028216846FDF704FD28
:1027C00014210AA8FDF700FD002401200F94022522
:1027D0000490009510201194059010941294079481
:1027E0006846FEF751FC08B172B6FEE70F20CDE94E
:1027F0000A040C940D9400210AA80E94FEF768FBBD
:1028000008B172B6FEE70FA80F951194FEF7EAFA29
:10281000002801D072B6FEE713B030BD704700004B
:102820000148FEF7F2BE00008C000020F0B50268FF
:10283000194B1A4C1A4D4FF08047984205D0B842B8
:1028400003D0A04201D0A84203D122F070064A680A
:102850003243984205D0B84203D0A04201D0A842EA
:1028600003D122F44074CA6822434C6922F08002EA
:10287000224302608A68C2620A688262984201D179
:1028800009690163012141610169C90703D0016937
:1028900021F001010161F0BD002C01400004004065
:1028A0000008004010B5846842EA032224F47F4403
:1028B0000A432243826010BD826822F070020A43FC
:1028C00042F007018160704710B5036A046A24F082
:1028D00001040462846924F0F00444EA021423F041
:1028E0000A020A438461026210BD10B5036A046AD9
:1028F00024F010040462846923F0A00324F47044DB
:1029000044EA023243EA01118261016210BD000013
:102910001CB502248DF800408DF801008DF80210DE
:102920008DF803208DF80430E31E05226946024825
:10293000FFF716FA1CBD0000D400002010B5406A55
:102940000021C185C184FEF769FF10BD01680C310B
:1029500051E8002F22F4907241E80023002BF5D1BA
:102960000168143151E8002F22F0010241E80023F0
:10297000002BF5D1016B012909D101680C3151E817
:10298000002F22F0100241E80023002BF5D1202176
:1029900080F8421000210163704708B590F842109A
:1029A000222901D0022008BD82684FF480539A4248
:1029B00001D1016921B1816A9A421BD04AB10AE072
:1029C0000268816A5268C2F308020A80816A891C1F
:1029D00008E0026972B10268526802F07F020A7070
:1029E000816A491C8162C18D491E0904090CC18597
:1029F00003D01BE002685268F1E70168CA6822F060
:102A00002002CA600168CA6822F48072CA60016844
:102A10004A6922F001024A61202180F84210002117
:102A20004163026B012A03D0FFF75CF9002008BD67
:102A3000016301680C3151E8002F22F0100241E8D7
:102A40000023002BF5D101680A68D20602D50A6876
:102A500049680091818DFEF7E0FEE7E770B5044616
:102A600000680169E26821F4405111430161216964
:102A7000A0680843616908432168CA6841F20C6391
:102A80009A430243CA6020684169A26921F44071F7
:102A9000114341611E492068884202D1FEF7BEFA07
:102AA00001E0FEF7ABFA00EBC00101EB0012606839
:102AB00064218000B2FBF0F3B3FBF1F36FF0180672
:102AC0007343B2FBF0F5B2FBF0F605EB830532235E
:102AD00003EB0515B5FBF1F5B6FBF1F605F0F005D6
:102AE00005EB0615B2FBF0F6B2FBF0F0B0FBF1F02F
:102AF0006FF01802504306EB800003EB0010B0FBB0
:102B0000F1F0216800F00F002844886070BD0000DB
:102B10000038014081628285C28500214164222102
:102B200080F84210016921B10168CA6842F48072DC
:102B3000CA6001684A6942F001024A610068C168DE
:102B400041F02001C160002070472DE9F84398460C
:102B500017460D460446089E24E0701C22D0FEF75E
:102B600051F8A0EB0800B0421AD8CEB12068C16875
:102B7000490717D5802D15D0402D13D00168C943C2
:102B800009070FD401680025406800902046FFF730
:102B9000DDFE0820606484F840500120BDE8F88321
:102BA0000320FBE72068006835EA000004D000201D
:102BB000B842D2D00020F1E70120F9E70148FEF742
:102BC0002FBE00001C0100200148FEF729BE0000B6
:102BD00064010020FEE70907090E002804DB00F16C
:102BE000E02080F80014704700F00F0000F1E020B2
:102BF00080F8141D7047000008B5FEF711F8FFF7C4
:102C0000D9FDFFF757F9FFF7E1F9FFF715F9FFF7DE
:102C1000A7F9FFF713FAFFF7F5F9FFF7B9FAFFF78E
:102C2000F1F80F48FEF756FC4FF0FF34234605221B
:102C30000CA10E48FFF794F802220D490B48FFF74C
:102C400043F800252346022269460A480095FEF70C
:102C5000E3FF2346022269460448FFF781F8F1E7C3
:102C60008C000020646F6E65000000001C010020D5
:102C7000100000206401002002460120002103E032
:102C800000EB80004000491C9142F9DB70470000D6
:102C900090EA010F48BF81F0004100F16881421ABB
:102CA0003CBF801A89184FEAD0524FF07F4C1CEA83
:102CB000410FA2EBD15318BF9CEA026F00F03B809A
:102CC0004FF0004C4CEA00204CEA012121FA03FCB1
:102CD00010EB0C0C1ED202F1FF325FEA1C2040EB1D
:102CE000C25038BF70471CF07F0F4FEA400C18BF2E
:102CF000BCF17F4F38BF7047C3F12003994008BF34
:102D000020F00100BCF17F4F38BF7047A0F1C040F8
:102D100000F017B94FEA3C00000A40EBC25028BF50
:102D20001CF0FF0F4FEA400CE6D018BFBCF17F4FFC
:102D300038BF7047EAE79CEA026F05D010EA5C0FE3
:102D400008BF00F00040704710B500F0B4F800BFB5
:102D500064FBBE3E41000B0ED3F19E0208D950F435
:102D600000034FEA032323FA02F048BF40427047B2
:102D700010B500F0A0F800BF4992248000207047F1
:102D80006FF0004282EA200070470000B0FA80F342
:102D900010FA03F2C3F19D030AD0D90501EB12200A
:102DA000530638BF704700F1010008BF20F0010052
:102DB000704700004FF47F0C1CEAD0121EBF1CEAC3
:102DC000D11392EA0C0F93EA0C0F00F0478090EABF
:102DD000010F48BF42F480724FF0004C4CEA0020D3
:102DE0004CEA012102EB0302A0FB0113A2F5000251
:102DF000002918BF43F001035B0028BF4FEA3303EB
:102E000042EB22425FEA132C4CEBC2502EBFBCEBCC
:102E1000436FB2F57C0F70474FEA036CBCF1004F73
:102E200008BF20F00100B2F57C0F38BF70470BD50A
:102E300082F0FF0212F5803FC8BF704700F1C0402A
:102E4000D8BF00F00040704700F5000C5FEA4C0C62
:102E500048BF7047B0F1C04000F073B890EA010F6E
:102E60000CEAD11348BF42F48072624538BF634513
:102E700004D280EA010000F00040704710B500F075
:102E80001AF800BF8900013E00F007B800F009B849
:102E90005FEA410C5FEA1C6C08D080EA010000F098
:102EA00050B85FEA400C5FEA1C6CF6D14FF000406E
:102EB000A0F5800070470EF1020E2EF0030E5EF8B2
:102EC000044B244204D44FEA4102B2F17F4F11D89F
:102ED0004FEA4003B3F17F4F0CD80ED14FEAD07CBC
:102EE000B2F17F4F0CEB4C0C0CF1020C08BF4CEB19
:102EF000D17C04E04FF0080C01E04FEAD17C0CEBF0
:102F00004C0324FA03F404F00704B4F1040C06D2D1
:102F10000EEB840CBDE810404CF0010C6047DFE87C
:102F20000CF0070802024FF00040A0F5800010BD31
:102F30000846420018BFD2F1807288BF00F00040FE
:102F400010BDFF2141EAD050C005704780F000401D
:102F500090EA010F7FF5A3AE81F0004100F007B8C1
:102F600090EA010F48BF81F000413FF598AE421A48
:102F700004D882F00042A0EB020011444FEAD05284
:102F80004FF07F4C1CEA410FA2EBD15318BF9CEAD3
:102F9000026F4AD04FF0004C4CEA00204CEA01216D
:102FA00021FA03FCB0EB0C0C0FD412F0FE0F36D05C
:102FB0005FEA4C001DD5001240EBC25038BF70478D
:102FC0001CF03F0F18BF70470BE0A2F101025FEA4F
:102FD0001C2040EBC25038BF70471CF07F0F18BF59
:102FE0007047C3F12003994014BF401E20F0010038
:102FF000704780084FEA122308BF7047B0FA80FC80
:10300000A2EB0C02CCF1280C60FA0CF093EA122F20
:1030100004BF00EBC25070474FEAC3707047130AF9
:103020005FEADC1008BF7047F6E79CEA026F04D045
:1030300010EA5C0F08BF0020704710B5FFF73BFF98
:1030400040DFF63E81F000407047010202030405B4
:10305000060708090A0B0C0D0E0F101001020203DF
:103060000405060708090A0B0C0D0E0F10100000CE
:103070000000000000000102030406070809000028
:103080000000010203040000000000000000000036
:10309000000000000000000000F800000000000038
:1030A00000333000000000100C06100C0600000079
:1030B00000000000000040C07840C0784000043F9D
:1030C00004043F040400007088FC0830000000186D
:1030D00020FF211E0000F008F000E0180000002191
:1030E0001C031E211E0000F00888700000001E2135
:1030F00023241927211010160E00000000000000E4
:10310000000000000000000000E0180402000000C1
:1031100000071820400000020418E00000000040F2
:10312000201807000000404080F08040400002026C
:10313000010F01020200000000F000000000010188
:10314000011F01010100000000000000000080B02C
:1031500070000000000000000000000000000001FE
:103160000101010101010000000000000000003029
:1031700030000000000000000000806018040060C3
:1031800018060100000000E010080810E000000F21
:10319000102020100F00001010F800000000002088
:1031A000203F2020000000700808088870000030D0
:1031B0002824222130000030088888483000001878
:1031C000202020110E000000C02010F80000000791
:1031D0000424243F240000F8088888080800001907
:1031E000212020110E0000E0108888180000000F38
:1031F000112020110E0000380808C838080000000F
:10320000003F000000000070880808887000001C63
:10321000222121221C0000E010080810E00000001C
:10322000312222110F00000000C0C0000000000089
:1032300000303000000000000080000000000000AE
:1032400080600000000000008040201008000001A5
:103250000204081020004040404040404000040468
:103260000404040404000008102040800000002032
:10327000100804020100007048080808F00000006F
:10328000003036010000C030C828E810E000071800
:10329000272423140B000000C038E0000000203C6D
:1032A00023020227382008F8888888700000203F11
:1032B000202020110E00C030080808083800071828
:1032C00020202010080008F808080810E000203F1F
:1032D000202020100F0008F88888E8081000203F00
:1032E00020202320180008F88888E8081000203FD4
:1032F000200003000000C03008080838000007184C
:103300002020221E020008F808000008F808203FCC
:10331000210101213F20000808F8080800000020D2
:10332000203F2020000000000808F8080800C080A6
:1033300080807F00000008F888C028180800203F1F
:1033400020012638200008F8080000000000203F77
:1033500020202020300008F8F800F8F80800203F6E
:10336000003F003F200008F830C00008F808203F68
:10337000200007183F00E01008080810E0000F10B8
:10338000202020100F0008F808080808F000203F4F
:10339000210101010000E01008080810E0000F18EA
:1033A000242438504F0008F8888888887000203F0F
:1033B0002000030C3020007088080808380000380E
:1033C000202121221C00180808F808081800000015
:1033D000203F2000000008F808000008F808001F3F
:1033E000202020201F000878880000C8380800002E
:1033F00007380E010000F80800F80008F800033C48
:103400000700073C0300081868808068180820300F
:103410002C03032C30200838C800C83808000000EE
:10342000203F2000000010080808C8380800203895
:10343000262120201800000000FE020202000000E9
:10344000007F40404000000C30C000000000000041
:1034500000010638C00000020202FE000000004029
:1034600040407F000000000004020202040000004F
:10347000000000000000000000000000000080804C
:103480008080808080800002020400000000000034
:103490000000000000000000808080800000001913
:1034A000242222223F2008F8008080000000003FF4
:1034B000112020110E000000008080800000000E0E
:1034C000112020201100000000808088F800000EEC
:1034D000112020103F200000808080800000001F0D
:1034E000222222221300008080F088888818002081
:1034F000203F202000000000808080808000006B42
:1035000094949493600008F8008080800000203F2D
:10351000210000203F20008098980000000000203B
:10352000203F20200000000000809898000000C08C
:103530008080807F000008F8000080808000203FAD
:1035400024022D302000000808F8000000000020B0
:10355000203F202000008080808080808000203FED
:1035600020003F20003F8080008080800000203FBE
:10357000210000203F200000808080800000001F8C
:10358000202020201F00808000808000000080FF1D
:10359000A12020110E000000008080808000000E1D
:1035A000112020A0FF80808080008080800020206B
:1035B0003F212000010000008080808080000033D7
:1035C000242424241900008080E080800000000072
:1035D000001F202000008080000000808000001F6D
:1035E000202020103F20808080000080808000010B
:1035F0000E300806010080800080008080800F303F
:103600000C030C300F0000808000808080000020C0
:10361000312E0E31200080808000008080808081EB
:103620008E7018060100008080808080800000215C
:10363000302C2221300000000000807C02020000BB
:103640000000003F404000000000FF0000000000BC
:103650000000FF0000000002027C8000000000402B
:10366000403F0000000000060101020204040000C7
:10367000000000000000FFFFFFFFFFFFFFFFFFFF54
:10368000FFFFFFFFFFFF0000000080BFAC36000817
:10369000000000205C000000280100080837000836
:1036A0005C000020B4070000440100080100000095
:1036B000100000000000000000127A00000000006E
:1036C000000000000000000000000000AE47813F45
:1036D0000000803F0000803F0000004000000040EC
:1036E000000000400000404000004040000040401A
:1036F000000080400000804000008040000000008A
:083700000000000001000000C0
:04000005080000ED02
:00000001FF
