:020000040800F2
:10000000B00800208901000835200008671C00089E
:10001000F11E00088F0200085126000800000000B1
:10002000000000000000000000000000092100089E
:100030006D07000800000000072100080B210008E0
:10004000A3010008A3010008A3010008A301000800
:10005000A3010008A3010008A3010008A3010008F0
:1000600085070008A3010008A3010008A3010008F8
:10007000A3010008A3010008A3010008A3010008D0
:10008000A3010008A3010008A3010008A3010008C0
:10009000A3010008A3010008A30100088B070008C2
:1000A000A3010008A3010008A3010008A3010008A0
:1000B000A3010008A301000869210008A3010008AA
:1000C000A3010008A3010008A3010008A301000880
:1000D000A301000839260008A301000845260008EE
:1000E0006F070008A3010008A301000800F002F850
:1000F00000F03AF80AA090E8000C82448344AAF188
:100100000107DA4501D100F02FF8AFF2090EBAE885
:100110000F0013F0010F18BFFB1A43F0010318473B
:10012000542C0000742C0000103A24BF78C878C109
:10013000FAD8520724BF30C830C144BF04680C60ED
:10014000704700000023002400250026103A28BF35
:1001500078C1FBD8520728BF30C148BF0B60704739
:100160001FB51FBD10B510BD00F058F81146FFF7C0
:10017000F7FF02F07FFA00F076F803B4FFF7F2FF22
:1001800003BC00F07DF8000009488047094800479B
:10019000FEE7FEE7FEE7FEE7FEE7FEE7FEE7FEE737
:1001A000FEE7FEE704480549054A064B7047000094
:1001B00067210008ED000008B0020020B008002010
:1001C000B0040020B00400204FF0000200B5134638
:1001D00094469646203922BFA0E80C50A0E80C5067
:1001E000B1F12001BFF4F7AF090728BFA0E80C5018
:1001F00048BF0CC05DF804EB890028BF40F8042B11
:1002000008BF704748BF20F8022B11F0804F18BF7D
:1002100000F8012B7047704770477047754600F033
:100220002BF8AE4605006946534620F00700854688
:1002300018B020B5FFF7B6FFBDE820404FF000062C
:100240004FF000074FF000084FF0000B21F00701BE
:10025000AC46ACE8C009ACE8C009ACE8C009ACE801
:10026000C0098D46704710B50446AFF300802046A4
:10027000BDE81040FFF781BF004870474C020020E6
:1002800001491820ABBEFEE7260002007047FEE7DA
:1002900010B56FF004042146094801F0AFFE08488C
:1002A0000521543001F0AAFE05480521A83001F0CF
:1002B000A5FE21460248BDE81040FC3001F09EBE7C
:1002C000FC00002010B56FF004010A4801F096FE12
:1002D00008480021543001F091FE06480521A8305D
:1002E00001F08CFE03480021BDE81040FC3001F015
:1002F00085BE0000FC00002010B500210A4801F076
:100300007DFE09486FF00401543001F077FE064885
:100310000021A83001F072FE03480521BDE810401D
:10032000FC3001F06BBE0000FC00002010B5002185
:100330000A4801F063FE09480521543001F05EFED1
:1003400006480021A83001F059FE0448BDE81040DD
:100350006FF00401FC3001F051BE0000FC000020F1
:1003600010B505210A4801F049FE09480021543022
:1003700001F044FE06486FF00401A83001F03EFE93
:1003800003480021BDE81040FC3001F037BE0000FA
:10039000FC00002010B505210A4801F02FFE094895
:1003A0006FF004042146543001F028FE0548214630
:1003B000A83001F023FE03480521BDE81040FC30C1
:1003C00001F01CBEFC00002010B56FF004042146B3
:1003D000094801F013FE08482146543001F00EFE92
:1003E00005480521A83001F009FE03480521BDE8B4
:1003F0001040FC3001F002BEFC00002010B50521C9
:100400000A4801F0FBFD09480521543001F0F6FDD2
:1004100006486FF004042146A83001F0EFFD2146A4
:100420000248BDE81040FC3001F0E8BDFC000020AF
:1004300010B56FF003042146094801F0DFFD0848BC
:100440000421543001F0DAFD05482146A83001F0BE
:10045000D5FD03480421BDE81040FC3001F0CEBDBD
:10046000FC00002010B504210A4801F0C7FD09482E
:100470006FF003042146543001F0C0FD054804210B
:10048000A83001F0BBFD21460248BDE81040FC3019
:1004900001F0B4BDFC0000202DE9F041424C434D79
:1004A000434E23462A463146424801F0F7FD414873
:1004B00023462A463146543001F0F0FD3D4823469C
:1004C0002A463146A83001F0E9FD3A4823462A463B
:1004D0003146FC3001F0E2FD0026364CDFF8D880D2
:1004E0003546283CC6EBC60000EB400004EB800715
:1004F00007F12800414601F0E3FD7D6387F82650AF
:10050000761C3D65042EEDDB2C48A0608314A3818E
:10051000DE002061A682C114A061A1838115206242
:10052000A184284A2649E265C4E900159D00A4F883
:1005300060506266A4F868604514E266A4F87050E2
:100540006267A4F878300422C4F8B000C4E9151238
:100550002023A4F8B4301023C4F8B800A4F8BC30A9
:100560004023C4F8C000A4F8C4308023C4F8C800F5
:10057000A4F8CC300823C4F80401C4E92A130225E6
:10058000A4F808510125C4F80C01A4F81051C4F8CE
:100590001401A4F81821C4F81C01A4F820310C207F
:1005A000C4E93F10BDE8F0819A9989400AD7233CFD
:1005B0007B149640240100200000FA43000801400B
:1005C00024000020000C014070B5094D002400BF3C
:1005D000C4EBC40000EB400005EB800155F820009F
:1005E000496801F019F8641C042CF1DB70BD0000AF
:1005F000FC000020704700002DE9F84F0E464649E8
:10060000C0EBC000DFF814B100EB40009846914603
:1006100001EB8005012E04D0022E05D0032E0DD152
:1006200023E055F82C7C01E055F8287C59463846E3
:1006300002F018FA02F0AEF9044600970A274FF0CC
:10064000FF3AC9F10403B8F1010F11D0B8F1000F5E
:1006500035D1184602F062F894FBF0F090FBF7F108
:1006600007FB110000282CDC23E055F8247CDDE793
:10067000184602F053F894FBF0F090FBF7F107FBFB
:100680001100092815DA012E04D0022E07D0032EFE
:100690000FD109E0184602F041F8204428E018463E
:1006A00002F03CF820442FE0184602F037F82044CE
:1006B00011E0534604226946194801F083FABDE867
:1006C000F88F012E10D0022E1AD0032EF1D1184629
:1006D00002F024F8201A02F079F9594602F098F84D
:1006E00045F8240C0090E4E7184602F017F8201AA9
:1006F00002F06CF9594602F08BF845F82C0CF1E742
:10070000184602F00BF8201A02F060F9594602F080
:100710007FF845F8280CE5E7FC0000200000C842FF
:100720006C00002070B50546C0EBC5000D4B00EB1A
:10073000400003EB800430290ED000290FDB142980
:100740000DDC012A02D0022A02D008E0084600E0AF
:10075000484202F03BF900E0002044F8200C024837
:10076000057070BDFC00002000000020704710B52F
:100770004FF4006000F0B2F8BDE810404FF40050B4
:1007800000F0ACB8042000F0A9B8402000F0A6B8F2
:1007900072B6FEE710B590F821100022022905D0AC
:1007A0000421816380F82020012010BD01680B68BE
:1007B00023F00E030B6001680B6823F001030B604C
:1007C00090F84030C46B012101FA03F3636080F8B4
:1007D000211080F82020104610BD000010B590F8C0
:1007E00021100024022903D00421816301243DE06B
:1007F00001680A6822F00E020A6001680A6822F0A5
:1008000001020A601A4A0168914201D1012121E0E6
:10081000174A1432914201D110211BE0144A2832A8
:10082000914201D1891515E0114A3C32914201D122
:1008300089140FE00E4A5032914202D14FF48031B8
:1008400008E00B4A6432914202D14FF4801101E07A
:100850004FF08071064A083A5160012180F821105A
:10086000002180F82010416B01B18847204610BD5F
:100870000800024070B5044600F03EF90546601CD1
:1008800002D004480078044400F036F9401BA0422E
:10089000FAD370BD040000202DE9F0410E4F06464A
:1008A000002500BFC5EBC50000EB400007EB80044E
:1008B000A08BB04209D1A18C206A00F00BF901286D
:1008C00014F8260F06D0401C20706D1C042DE9DBA7
:1008D000BDE8F081401EF7E7FC000020044910B598
:1008E0000A68024202D00860FFF7D6FF10BD000080
:1008F000140401402DE9F84FDFF8B8910024A9F164
:10090000040B23460F2709F1040AABF1040EC9E0DA
:100910000125A5402A40AA427DD1674ED1F804C0E6
:10092000ACEB0608B44532D014DCBCF1030F3AD06E
:1009300009DCBCF1000F2AD0BCF1010F1CD0BCF1C6
:10094000020F31D11DE0BCF1110F17D0BCF1120F15
:100950002AD119E0B8F5881F19D006DCB8F5803F18
:1009600015D0B8F5801F1FD111E0B8F5001F0ED0CB
:10097000B8F5041F18D10AE0CB6815E0CB681B1D41
:1009800012E0CB6808330FE0CB680C330CE08B68C7
:100990002BB1012B4FF0080303D0456104E0042381
:1009A00002E0056100E00023FF2A01D8064601E0CD
:1009B00000F104064FEA840501D9A5F12005D6F817
:1009C000008007FA05FC28EA0C0803FA05F548EA56
:1009D0000508C6F800804D68ED0062D5374DAE6958
:1009E00046F00106AE61AD6924F0030605F001058D
:1009F0000095334D06EB050CDCF80850A607360FC2
:100A000007FA06F825EA0805DFF8B880404503D163
:100A10004FF0000817E044E0DFF8AC80404502D119
:100A20004FF001080FE0DFF8A480404502D14FF0FD
:100A3000020808E0DFF89880404502D14FF0030833
:100A400001E04FF0040808FA06F848EA0508CCF877
:100A500008804D68D9F80060ED024D4601D5164377
:100A600000E096432E604D68DAF80060AD0255460E
:100A700001D5164300E096432E604D68DBF8006018
:100A8000AD035D4601D5164300E096432E604D68E8
:100A9000DEF80060ED03754601D5164300E096438D
:100AA0002E60641C0D682A46E5407FF431AFBDE836
:100AB000F88F0000080401400000111000100240EF
:100AC0000000014000080140000C014000100140FE
:100AD000001401408068084000D001207047C268BF
:100AE00021EA02030A4043EA0241016170470AB168
:100AF000016170470904FBE7014880687047000006
:100B00000400002002488168027811448160704727
:100B100004000020074810B5016841F01001016091
:100B2000032000F075F80F2000F006F800F024F81C
:100B3000002010BD0020024070B50D4D04464FF45A
:100B40007A712878B1FBF0F00A490968B1FBF0F03E
:100B500000F0DCFA48B9102C07D200222146501EC2
:100B600000F036F800206C6070BD012070BD000000
:100B700004000020100000200C4808B5816941F0F5
:100B800001018161816901F001010091C16941F0B8
:100B90008051C161C06900F08050009004484168F4
:100BA00021F0E06141F08061416008BD0010024029
:100BB00000000140002809DB00F01F0201219140E4
:100BC0004009800000F1E020C0F8001170470000EB
:100BD000F0B40E4B1B680C46C3F30223C3F10705A8
:100BE000042D00D90425191D072901D2002300E096
:100BF000DB1E012606FA05F1491E214099409E4060
:100C0000761E16403143F0BC01F023BD0CED00E030
:100C1000064900F0070208684FF6FF03184040EA53
:100C20000220034A10430860704700000CED00E00A
:100C30000000FA052DE9F0470F46050061D0434E4C
:100C4000306800F00700B84209D2306820F0070091
:100C500038433060306800F00700B84251D128684E
:100C60003B4C810712D5400703D5606840F4E06033
:100C700060602878000703D5606840F460506060C9
:100C80006068A96820F0F000084360602878C00719
:100C900028D06868012810D02168022810D0890760
:100CA00000292EDA616821F0030101436160FFF73A
:100CB00023FF804641F288390DE021688903EFE780
:100CC0008901EDE7FFF718FFA0EB0801494502D9BC
:100CD0000320BDE8F0876068696800F00C00B0EBA5
:100CE000810FEFD1306800F00700B8420BD93068AF
:100CF00020F0070038433060306800F00700B84249
:100D000001D00120E5E72878400705D56068E9684B
:100D100020F4E060084360602878000706D560682A
:100D2000296920F4605040EAC100606000F038F8A2
:100D30006168084AC1F30311515CC8400649086064
:100D400006480068FFF7F8FE0020C2E700200240D6
:100D5000001002405C2D0008100000200800002058
:100D60000448054900684968044AC1F30221515CFE
:100D7000C840704710000020001002406C2D000891
:100D80000448054900684968044AC1F3C221515C1E
:100D9000C840704710000020001002406C2D000871
:100DA0000E4A51680E4801F00C03042B11D0082B99
:100DB0000FD10C48C1F38343C903C05C0AD5516805
:100DC000084AC1F34041921E515C054A5043B0FBB2
:100DD000F1F070470449484370470000001002409A
:100DE00000127A004C2D000800093D002DE9F84F53
:100DF000040070D02078C04DC00749D06868C0F3A7
:100E00008100012807D06868C0F38100022809D159
:100E10006868C00306D52868800339D56068002853
:100E2000E7D035E06068B0F5803F0BD010B1B0F589
:100E3000A02F11D0286820F480302860286820F482
:100E4000802002E0286840F480302860606890B11B
:100E5000FFF752FE06460AE0286840F4802028602A
:100E6000F0E700BFFFF748FE801B642873D82868AE
:100E70008003F7D50CE0FFF73FFE064605E000BF14
:100E8000FFF73AFE801B6428F0D828688003F7D467
:100E900020789A4E80074FF001094FF0000839D5AD
:100EA000686810F00C0F07D06868C0F38100022852
:100EB00009D16868C00306D42868800714D5206962
:100EC000012808D110E02069B0B1C6F80090FFF702
:100ED00013FE074605E00AE1FFF70EFEC01B0228DD
:100EE000C4D828688007F7D52868616920F0F80021
:100EF00040EAC10028600DE0C6F80080FFF7FCFD65
:100F0000074604E0FFF7F8FDC01B022823D8286835
:100F10008007F7D4207800072CD57948A169D9B18A
:100F2000C0F80090FFF7E8FD074604E0FFF7E4FD96
:100F3000C01B02280FD8686A8007F7D571484FF4A4
:100F4000FA510068B0FBF1F0009000BF0098411E1C
:100F50000091FAD20EE080E0C0F80080FFF7CCFDEF
:100F6000074604E0FFF7C8FDC01B022875D8686A71
:100F70008007F7D42078400760D5E8690027C000D3
:100F800008D4E86940F08050E861E869012700F082
:100F9000805000905C480168C90513D401688346FD
:100FA00041F480710160FFF7A7FD824606E000BFB3
:100FB000FFF7A2FDA0EB0A0064284ED8DBF8000082
:100FC000C005F5D5E06801280AD008B1052813D07E
:100FD000286A20F001002862286A20F0040002E05C
:100FE000286A40F001002862E06841F2883B98B12D
:100FF000FFF782FD82460BE0286A40F00400286279
:10100000EEE700BFFFF778FDA0EB0A0159455AD87B
:10101000286A8007F6D50CE0FFF76EFD824605E0F2
:10102000FFF76AFDA0EB0A0159454CD8286A8007F2
:10103000F6D41FB1E86920F08050E861E06988B318
:101040006968C1F38101022944D00228C6F8608092
:1010500004D0FFF751FD044638E034E0FFF74CFDC3
:10106000074604E0FFF748FDC01B02282BD828687C
:101070008001F7D4206AB0F5803F05D16868A16887
:1010800020F4003008436860D4E908010843696827
:1010900021F4741108436860C6F86090FFF72CFDD6
:1010A000044606E025E000BFFFF726FD001B0228EE
:1010B00009D828688001F7D51BE000BFFFF71CFDA9
:1010C000001B022802D90320BDE8F88F28688001A0
:1010D000F4D40EE00128F7D06868226A00F4803169
:1010E000914204D1616A00F47010884201D001205D
:1010F000EAE70020E8E7000000100240000042425A
:1011000080044242100000200070004010B5401ED4
:10111000B0F1807F01D3012010BD4FF0E024606169
:101120000F21601701F095FA0020A06107202061CF
:10113000002010BD7047704770B590F83C20012A20
:1011400026D0012480F83C40022280F83D2003682C
:101150005A689D6822F070060A6832435A600D4B47
:1011600002689A4208D0B2F1804F05D00A4B9A42E9
:1011700002D00A4B9A4204D1496825F080031943F2
:10118000916080F83D40002180F83C10084670BD19
:10119000022070BD002C0140000400400008004007
:1011A00010B5040003D094F83D0010B107E0012011
:1011B00010BD002084F83C00204600F01FF80220FB
:1011C00084F83D00211D206800F0D4FF012084F840
:1011D000460084F83E0084F83F0084F8400084F81C
:1011E000410084F8420084F8430084F8440084F805
:1011F000450084F83D00002010BD000008B50068DF
:101200000B49884212D10B48C16941F00401C16108
:10121000C069002200F00400009003211E20FFF7A7
:10122000D7FCBDE808401E20FFF7C4BC08BD000085
:10123000000800400010024090F83D10012901D044
:1012400001207047022180F83D100168CA6842F011
:101250000102CA6000680B49884208D0B0F1804F93
:1012600005D00949884202D00849884204D18168E2
:1012700001F00701062903D0016841F00101016076
:1012800000207047002C014000040040000800408E
:1012900070B5044690F83C000025012817D00126BF
:1012A00084F83C60022084F83D002068826822F0C7
:1012B000770222F47F4282600868502838D00DDC23
:1012C00020284FD005DC90B3102811D14AE002202D
:1012D00070BD302846D040280AD13BE060282FD08E
:1012E00070280DD0B0F5805F03D0B0F5005F12D04C
:1012F000012584F83D60002084F83C00284670BD3C
:10130000CB68D1E90121206800F07DFF2068816869
:1013100041F0770109E0CB68D1E90121206800F0B4
:1013200072FF2068816841F480418160E1E719E043
:10133000CA684968206801F01BF85021206806E05F
:10134000CA684968206801F024F86021206800F02C
:1013500064FFCEE7CA684968206801F009F84021B7
:101360002068F4E7226801461046F0E770472DE94F
:10137000F04104460068C66805694FF00007A907F8
:1013800013D5B10711D5F91E01610120207720681E
:1013900080698007204602D0FFF7E8FF04E000F0F4
:1013A000A5F8204600F037F92777680716D57007AB
:1013B00014D521686FF004000861022020772068AE
:1013C000806910F4407F204602D0FFF7CFFF04E091
:1013D00000F08CF8204600F01EF92777280715D575
:1013E000300713D521686FF00800086104202077CA
:1013F0002068C0698007204602D0FFF7B7FF04E0ED
:1014000000F074F8204600F006F92777E80616D5B4
:10141000F00614D521686FF01000086108202077CD
:101420002068C06910F4407F204602D0FFF79EFF7D
:1014300004E000F05BF8204600F0EDF82777E807BD
:1014400008D0F00706D021686FF00100086120463F
:1014500000F030F9280608D5300606D521686FF06F
:10146000800008612046FFF765FE680608D5700613
:1014700006D521686FF040000861204600F08AF927
:10148000A8060AD5B00608D521686FF020000861CB
:101490002046BDE8F041FFF74EBEBDE8F0810000F8
:1014A00000B585B00021009101910291039100687F
:1014B0000B49884212D10B48816941F008018161D2
:1014C0008069694600F0080004904FF47070009045
:1014D0000220019003900448FFF70CFA05B000BD0C
:1014E0000008004000100240000C0140704770B539
:1014F000044690F83C0000260D4601280FD001203C
:1015000084F83C006AB1042A1DD0082A2FD00C2A86
:101510003FD00126002084F83C00304670BD0220F8
:1015200070BD206800F082FE2068816941F00801EA
:1015300081612068816921F00401816120688169ED
:101540002A69114311E0206800F098FE2068816943
:1015500041F4006181612068816921F480618161C9
:10156000206881692A6941EA02218161D2E7206805
:1015700000F0B0FE2068C16941F00801C161206837
:10158000C16921F00401C1612068C1692A69114360
:1015900011E0206800F0CAFE2068C16941F40061D2
:1015A000C1612068C16921F48061C1612068C1699D
:1015B0002A6941EA0221C161ACE710B5040003D0F9
:1015C00094F83D0010B107E0012010BD002084F820
:1015D0003C00204600F01EF8022084F83D00211D4A
:1015E000206800F0C7FD012084F8460084F83E0022
:1015F00084F83F0084F8400084F8410084F84200F9
:1016000084F8430084F8440084F8450084F83D00E1
:10161000002010BD7047704710B50446022249B142
:1016200004290ED0082913D094F84100012816D0BF
:10163000012010BD94F83E000128F9D184F83E2025
:101640000FE094F83F000128F2D184F83F2008E031
:1016500094F840000128EBD184F8402001E084F8A0
:1016600041200122206800F0C1FD0F492068884216
:1016700003D1426C42F4004242642068884208D0A0
:10168000B0F1804F05D00949884202D0084988420C
:1016900004D1816801F00701062903D0016841F0F7
:1016A00001010160002010BD002C01400004004039
:1016B000000800402DE9F05F314A90425DD1314889
:1016C000314E824641680A2902DA491C416029E00C
:1016D000002590464FF0C80B2F468146C5EBC5004C
:1016E00000EB400006EB800494F9260001F06EF94F
:1016F000A06384F82670606898B3042836D0082860
:10170000D8F80010584636D00864204600F024FC73
:10171000C9F80470A06B01F03DF90AF805006D1CD2
:10172000042DDBDB19480078411E032925D8C0EBC6
:10173000C00000EB400006EB800555F8200D01F0DD
:1017400029F98AF800005446686801F023F96070AE
:10175000BDE8F05F4FF0FF3304220A490C4800F067
:1017600031BAD8F80010C1F834B0CEE7D8F800107C
:10177000C1F838B0C9E7C863C7E7BDE8F09F00000B
:101780002400002014000020FC00002000000020A5
:10179000B40000207047704770470000F8B501683A
:1017A00004460868CA684B6910F00F0F4FF0000537
:1017B00059D003F0010602F49077374365D0C10792
:1017C00005D0D10503D5616C41F001016164410789
:1017D00005D5D90703D0616C41F00201616481072E
:1017E00005D5D90703D0616C41F00401616401079C
:1017F00007D502F02001314303D0616C41F00801AC
:101800006164616C00293AD0800604D5900602D547
:10181000204600F0FFFD20684069616CC0F3801035
:10182000090700D460B3204600F0CDFD2068406970
:10183000400621D52068143050E8001F21F04001F7
:1018400040E80012002AF5D1E06BA8B16D49416370
:10185000E06BFEF7C3FF002811D0E06B416B01B0D5
:10186000BDE8F040084783060FD593060DD5204606
:10187000BDE8F84000F0CEBD2046FFF78DFFF8BD73
:101880002046FFF789FF6564F8BD266B2023012EF3
:101890007CD1C6067AD5D60678D508684868009007
:1018A00048694FF00206400640D5E16B0868406881
:1018B0000004000CE8D0A28D8242E5D9E085886959
:1018C00020282DD020680C3050E8001F21F48071B2
:1018D00040E80012002AF5D12068143050E8001FBB
:1018E00021F0010140E80012002AF5D120681430EF
:1018F00050E8001F21F0400140E80012002AF5D115
:1019000084F84230256320680C3050E8001F21F035
:10191000100140E80012002AF5D1E06BFEF73AFF13
:101920006663A08DE18D401A81B22AE0A08DE18D21
:10193000401A81B2E08D0028A6D00029A4D02268E8
:101940000C3252E8000F20F4907042E80007002F9C
:10195000F5D12068143050E8002F22F0010240E851
:101960000027002FF5D184F84230256320680C3021
:1019700050E8002F22F0100240E80023002BF5D1A0
:1019800066632046FFF707FFF8BDFFE705062BD586
:10199000150629D594F841002128F5D1A068B0F5A5
:1019A000805F01D12069B0B1206A411C21622168A9
:1019B00000784860E08C401E0004000CE084E3D115
:1019C0002068C16821F08001C1602068C16841F0D1
:1019D0004001C160D8E7206A0088C0F30800486071
:1019E000206A801C2062E5E74006CDD55006CBD5A5
:1019F000CA68204622F04002CA6084F8413000F0F4
:101A000031F9C1E7B723000870B5040004D094F899
:101A10004100002510B106E0012070BD84F840505F
:101A2000204600F023F8242084F841002068C16893
:101A300021F40051C160204600F04EFD206801698C
:101A400021F4904101612068416921F02A0141613E
:101A50002068C16841F40051C1606564202084F8A9
:101A6000410084F842006563002070BD70B586B007
:101A70000024009401940294039403682E482D4E90
:101A8000022103220515B34226D1836943F4804322
:101A90008361836903F480430493836943F00403FF
:101AA00083618069254E00F0040004900802CDE9AE
:101AB0000001039269463046FEF71CFFCDE9005451
:101AC000694630460294FEF715FF002201212520C9
:101AD000FFF77EF8252028E0194EB34227D1C369CD
:101AE00043F48023C361C36903F4802304938369AF
:101AF00043F0080383618069CDE9005100F00800DC
:101B0000CDE903200F4D69462846FEF7F3FEE814A1
:101B1000CDE90004694628460294FEF7EBFE002258
:101B200011462720FFF754F82720FFF743F806B0A7
:101B300070BD000000380140001002400008014064
:101B400000480040000C014090F84230202B01D0AA
:101B50000220704721B11AB10023036300F018BDC1
:101B60000120704710B500681249884221D1124CFB
:101B70002078012804D1E278A1786078FEF7D2FDC0
:101B80002078022809D101030C48FEF7A8FF237929
:101B9000E278A1786078FEF72FFD2078032801D144
:101BA000FEF728FDBDE81040052203490448FFF771
:101BB000CBBF10BD003801401C00002000100140C8
:101BC0006C0000202DE9F843044690F84100984647
:101BD00016460D46202802D00220BDE8F88385B1C4
:101BE0007EB100206064212084F84100FEF784FF6C
:101BF000A6848146E684A0682027B0F5805F02D0E5
:101C000003E00120E9E7206910B12E4600250EE02F
:101C100000260CE08021204600F0D5FCA8B9C6B112
:101C200016F8010B21684860E08C401EE084E08CCF
:101C30004B464FF00002CDF800800028EAD14FF06B
:101C40004001204600F0BFFC40B184F84170032001
:101C5000C3E735F8020BC0F30800E3E784F84170EE
:101C60000020BAE77047FEE72DE9F04F85B0002568
:101C70004B480095019502950395816941F010014B
:101C80008161816901F010010491816941F02001B5
:101C90008161816901F020010491816941F00401B1
:101CA0008161816901F004010491816941F00801B9
:101CB00081618069DFF8ECA000F008004FF4005764
:101CC0000490002239465046FEF711FFDFF8D8B0E5
:101CD00049F23308002241465846FEF708FF4FF408
:101CE0004049002249463148FEF701FF01260224FF
:101CF000CDE90254CDE9007669465046FEF7FAFD7B
:101D0000CDF80080CDE90164694658460394FEF79A
:101D1000F1FDDFF89C8040F64400CDE900086946FB
:101D200002945846FEF7E6FD4FF4C470CDE9000575
:101D3000694602945846FEF7DDFDE002CDE9000554
:101D4000694602941948FEF7D5FD0097CDE9018454
:101D500069461648FEF7CEFDCDF80090CDE9016446
:101D6000694612480394FEF7C5FD002202210820AF
:101D7000FEF72EFF0820FEF71DFF0022022117208C
:101D8000FEF726FF1720FEF715FF0022022128206C
:101D9000FEF71EFF2820FEF70DFF05B0BDE8F08F0F
:101DA000001002400010014000080140000C0140FA
:101DB0000000111010B58EB0002407940894099407
:101DC0000A940B941C2168460C94FEF7FDF92B48ED
:101DD000294901600721C0E9011440F2E731C0E957
:101DE000031480218161FFF7DBF908B1FEF7D0FC15
:101DF0004FF48050079007A92048FFF749FA08B12F
:101E0000FEF7C6FC1D48FFF7D8FB08B1FEF7C0FC83
:101E10000B940BA919480C94FFF78EF908B1FEF743
:101E2000B7FC6020CDE90004029400226946134803
:101E30000494FFF75CFB08B1FEF7AAFC0422694694
:101E40000E48FFF754FB08B1FEF7A2FC08226946D2
:101E50000A48FFF74CFB08B1FEF79AFC0C226946D2
:101E60000648FFF744FB08B1FEF792FC0348FFF772
:101E700017FB0EB010BD0000000800402400002039
:101E80000C4810B50A4901604FF4E131416000216E
:101E900081600C22C160C0E904128161C161FFF759
:101EA000B3FD002803D0BDE81040FEF771BC10BDA3
:101EB000003801406C0000200C4810B50A49016050
:101EC0004FF4E1314160002181600C22C160C0E922
:101ED00004128161C161FFF797FD002803D0BDE8BE
:101EE0001040FEF755BC10BD00480040B400002073
:101EF000FEE770B5044600F12806304600F0E2F82F
:101F0000216D00F017FC20F00040E16C00F076FD40
:101F1000304605D800F0D6F8216D00F00BFC09E042
:101F200000F0D0F8216D00F005FCE16C00F066FED9
:101F3000E06C01D2206570BD80F00045304600F0B5
:101F4000C1F8216D00F0F6FB294600F057FDF2D2F2
:101F5000E06C80F00040EDE770B50446FFF7C9FF84
:101F6000206DB0F5000F03DBA1890022A06822E0FC
:101F700010F0FF4F1CD010F1FF4F09D3A1890122AF
:101F8000A068FEF7B4FDA18A00222069FEF7AFFD2C
:101F9000194D6068A8B104281CD00828206D22D0F3
:101FA00000F0F8FC002800DA40422968086470BD9F
:101FB000A1890122A068FEF79AFDA18A0122206969
:101FC000E4E7206D00F0E6FC002800DA40422968D2
:101FD000486370BD206D00F0DDFC002800DA40424F
:101FE0002968886370BD00F0D5FC002800DA404203
:101FF0002968C86370BD00002400002010B50446A5
:10200000002901DB084600E04842142803DC0846AA
:1020100000F0DCFC03E011F1140F02DA0348606306
:1020200010BD1429FCDD0248F9E700000000A0C142
:102030000000A041FEE770B50446D4E9031000F0AB
:102040000FFE0546616900F00BFE6561E0612946FF
:10205000A06900F06FFB20F00040216A00F0CEFC88
:10206000D4E9051002D800F065FB06E000F062FB41
:10207000216A00F0C3FD206A01D2A06170BD80F02A
:102080000045D4E9051000F055FB294600F0B6FCE8
:10209000F4D2206A80F00040EFE7000080E80E00F4
:1020A00000210161C1604161C16181610249016238
:1020B00002494162704700000000A0410000164440
:1020C0004162704770B50446FFF7B5FFE169A0684B
:1020D00000F0C8FC0646A169606800F0C3FC054634
:1020E0006169206800F0BEFC294600F023FB314600
:1020F00000F020FB0546616A00F080FD01D2606AB5
:1021000070BD284670BD70477047FEF7FBBC30B508
:102110008FB028216846FEF757F814210AA8FEF769
:1021200053F801200225049000951020059000240A
:10213000CDE9075468460994FEF758FE08B172B617
:10214000FEE70F20CDE90A054FF48060CDE90C4091
:1021500000210AA80E94FEF76DFD002801D072B68A
:10216000FEE70FB030BD70470148FFF700B900002F
:1021700024000020F0B50268194B1A4C1A4D4FF09C
:102180008047984205D0B84203D0A04201D0A8426F
:1021900003D122F070064A683243984205D0B84213
:1021A00003D0A04201D0A84203D122F44074CA68EF
:1021B00022434C6922F08002224302608A68C26294
:1021C0000A688262984201D1096901630121416173
:1021D0000169C90703D0016921F001010161F0BD66
:1021E000002C0140000400400008004010B501F040
:1021F0001F030121046A99408C430462016A9A40DA
:102200001143016210BD10B5846842EA032224F430
:102210007F440A432243826010BD826822F070022C
:102220000A4342F0070181607047000030B5036A3D
:10223000026A22F0010202624268846924F0730596
:102240000C682C4323F002058B682B430A4DA842EF
:102250000BD123F00805CB6822F440722B434D6963
:1022600023F0040315438A692A4342608461496864
:102270004163036230BD0000002C014030B5026AAA
:10228000036A23F010030362436884690D6824F431
:10229000E64444EA05248D6822F0200242EA051251
:1022A0000B4DA8420ED1CD6822F0800242EA051201
:1022B0004D6923F4406343EA85038D6922F04002AF
:1022C00043EA85034360846149688163026230BDEB
:1022D000002C014030B5036A026A22F48072026267
:1022E0004268C46923F4007324F073050C682C431E
:1022F0008D6843EA05230C4DA8420ED1CD6823F426
:10230000006343EA05234D6922F4405242EA051274
:102310008D6923F4806342EA05124260C461496812
:10232000C163036230BD0000002C014030B5046A77
:10233000026A22F4805202624268C3690D6823F483
:10234000E64343EA05238D6824F4005444EA053447
:10235000064DA84204D14D6922F4804242EA85121A
:102360004260C36149680164046230BD002C0140D1
:1023700010B5036A046A24F001040462846924F03D
:10238000F00444EA021423F00A020A438461026260
:1023900010BD10B5036A046A24F010040462846955
:1023A00023F0A00324F4704444EA023243EA01110A
:1023B0008261016210BD10B5406A0021C185C184EF
:1023C000FFF7EAF910BD01680C3151E8002F22F443
:1023D000907241E80023002BF5D10168143151E8D7
:1023E000002F22F0010241E80023002BF5D1016B00
:1023F000012909D101680C3151E8002F22F01002A7
:1024000041E80023002BF5D1202180F84210002163
:102410000163704708B590F84210222901D00220CC
:1024200008BD82684FF480539A4201D1016921B1FD
:10243000816A9A421BD04AB10AE00268816A5268F6
:10244000C2F308020A80816A891C08E0026972B13D
:102450000268526802F07F020A70816A491C816238
:10246000C18D491E0904090CC18503D01BE0026817
:102470005268F1E70168CA6822F02002CA60016868
:10248000CA6822F48072CA6001684A6922F00102B7
:102490004A61202180F8421000214163026B012A29
:1024A00003D0FFF75FFB002008BD016301680C311A
:1024B00051E8002F22F0100241E80023002BF5D153
:1024C00001680A68D20602D50A6849680091818DC0
:1024D000FFF761F9E7E7000070B50446006801699D
:1024E000E26821F44051114301612169A068084369
:1024F000616908432168CA6841F20C639A43024348
:10250000CA6020684169A26921F4407111434161A8
:102510001E492068884202D1FEF732FC01E0FEF736
:102520001FFC00EBC00101EB001260686421800019
:10253000B2FBF0F3B3FBF1F36FF018067343B2FB99
:10254000F0F5B2FBF0F605EB8305322303EB05153E
:10255000B5FBF1F5B6FBF1F605F0F00505EB061558
:10256000B2FBF0F6B2FBF0F0B0FBF1F06FF0180246
:10257000504306EB800003EB0010B0FBF1F0216844
:1025800000F00F002844886070BD00000038014052
:1025900081628285C28500214164222180F8421037
:1025A000016921B10168CA6842F48072CA60016899
:1025B0004A6942F001024A610068C16841F02001A5
:1025C000C160002070472DE9F843984617460D4634
:1025D0000446089E24E0701C22D0FEF78DFAA0EB82
:1025E0000800B0421AD8CEB12068C168490717D593
:1025F000802D15D0402D13D00168C94309070FD491
:1026000001680025406800902046FFF7DCFE0820A6
:10261000606484F840500120BDE8F8830320FBE7A4
:102620002068006835EA000004D00020B842D2D00B
:102630000020F1E70120F9E70148FFF7AFB80000FB
:102640006C0000200148FFF7A9B80000B40000208A
:10265000FEE70907090E002804DB00F1E02080F8FE
:102660000014704700F00F0000F1E02080F8141D06
:1026700070470000FEF74EFAFFF749FDFFF7F4FA46
:10268000FFF71AFCFFF796FBFFF7FAFBFDF704FFD5
:10269000FDF79AFF05221E491E48FFF755FA1E480E
:1026A000FEF7CAFD4FF47A74FDF774FE2046FEF77C
:1026B000E1F8FDF789FE2046FEF7DCF8FDF7E8FDBE
:1026C0002046FEF7D7F8FDF799FE2046FEF7D2F830
:1026D000FDF746FE2046FEF7CDF8FDF70DFE20463D
:1026E000FEF7C8F8FDF7EEFD2046FEF7C3F8FDF74C
:1026F0001DFE2046FEF7BEF8FDF79AFE2046FEF7C7
:10270000B9F8FDF7AFFE2046FEF7B4F8CCE70000BD
:102710001C0000206C000020240000200246012044
:10272000002103E000EB80004000491C9142F9DBEE
:102730007047000090EA010F48BF81F0004100F1AE
:102740009682421A3CBF801A89184FEAD0524FF045
:102750007F4C1CEA410FA2EBD15318BF9CEA026FD9
:1027600000F03B804FF0004C4CEA00204CEA012185
:1027700021FA03FC10EB0C0C1ED202F1FF325FEACF
:102780001C2040EBC25038BF70471CF07F0F4FEA4F
:10279000400C18BFBCF17F4F38BF7047C3F1200316
:1027A000994008BF20F00100BCF17F4F38BF70474F
:1027B000A0F1C04000F01DBA4FEA3C00000A40EB17
:1027C000C25028BF1CF0FF0F4FEA400CE6D018BFE4
:1027D000BCF17F4F38BF7047EAE79CEA026F05D033
:1027E00010EA5C0F08BF00F00040704710B500F021
:1027F000BAF900BF64FBBE3E401058BFC0F1404074
:10280000491058BFC1F140418142EFF30080704749
:102810004FF47F0C1CEAD0121EBF1CEAD11392EABF
:102820000C0F93EA0C0F00F0858090EA010F48BF6F
:1028300042F4807240F4000C41F400002CF07F411F
:1028400020F07F4000B58142A2EB03020FF2081C8A
:10285000ACEB504EC0F100009EF800E04FEA4E0E87
:1028600000FB0EFC38BF49004FEA2C1C02F5FA02AF
:102870000CFB0EF34FEACE1E4FEA112C4FEAC1219A
:102880000EEB635E42EB22420EFB0CFC4FEA1C5344
:1028900000FB03114FEA112C4FEA01310EFB0CFC37
:1028A0004FEADC4C00FB0C11C14228BF09184CEB6D
:1028B00003335DF804EB10EB410143EBC250B2F57A
:1028C0007C0F38BF704729D512F0F00F1CBF00F104
:1028D000C04000F000407047008182838485868775
:1028E00088898B8C8D8E8F919293959697999A9CCF
:1028F0009D9FA0A2A3A5A7A8AAACAEB0B2B3B5B73E
:10290000B9BCBEC0C2C5C7C9CCCED1D4D7D9DCDF13
:10291000E2E6E9ECF0F3F7FAFE0000004FEA400CC3
:102920000CF1807CBCF17E4F28BF7047B0F1C040F5
:1029300000F05FB990EA010F0CEAD11348BF42F4EE
:102940008072624538BF634507D213F47F0F16D0FB
:1029500080EA010000F00040704710B500F003F974
:10296000097EFC3E00F005B880EA010000F000405E
:10297000704780EA010000F0004000F03AB912F41C
:102980007F0F04BF0248704780EA010000F031B9B0
:102990000000C07F41000B0ED3F19E0208D950F415
:1029A00000034FEA032323FA02F048BF4042704776
:1029B00010B500F0D8F800BF49922480002070477D
:1029C0006FF0004282EA20007047000010F00041E2
:1029D00048BF4042B0FA80F310FA03F2C3F19D03FE
:1029E0000BD051EAC35101EB1220530638BF704798
:1029F00000F1010008BF20F00100704750EA010C0F
:102A000000F113801CF5000F58BFBCF5000F01D476
:102A10008842704707D710F5000F58BF11F5000F17
:102A200015D488427047894270471CF5000F04D5C1
:102A3000BCF5000FF7D5814270474FF0807C1CEB4E
:102A4000400F38BF1CEB410F01D28142704710B5D7
:102A500000F089F8922449004FF000504FF0805167
:102A6000FFF7CABE4FF47F0C1CEAD0121EBF1CEA4F
:102A7000D11392EA0C0F93EA0C0F00F0478090EA12
:102A8000010F48BF42F480724FF0004C4CEA002026
:102A90004CEA012102EB0302A0FB0113A2F50002A4
:102AA000002918BF43F001035B0028BF4FEA33033E
:102AB00042EB22425FEA132C4CEBC2502EBFBCEB20
:102AC000436FB2F57C0F70474FEA036CBCF1004FC7
:102AD00008BF20F00100B2F57C0F38BF70470BD55E
:102AE00082F0FF0212F5803FC8BF704700F1C0407E
:102AF000D8BF00F00040704700F5000C5FEA4C0CB6
:102B000048BF7047B0F1C04000F073B890EA010FC1
:102B10000CEAD11348BF42F48072624538BF634566
:102B200004D280EA010000F00040704710B500F0C8
:102B30001AF800BF8900013E00F007B800F009B89C
:102B40005FEA410C5FEA1C6C08D080EA010000F0EB
:102B500050B85FEA400C5FEA1C6CF6D14FF00040C1
:102B6000A0F5800070470EF1020E2EF0030E5EF805
:102B7000044B244204D44FEA4102B2F17F4F11D8F2
:102B80004FEA4003B3F17F4F0CD80ED14FEAD07C0F
:102B9000B2F17F4F0CEB4C0C0CF1020C08BF4CEB6C
:102BA000D17C04E04FF0080C01E04FEAD17C0CEB43
:102BB0004C0324FA03F404F00704B4F1040C06D225
:102BC0000EEB840CBDE810404CF0010C6047DFE8D0
:102BD0000CF0070802024FF00040A0F5800010BD85
:102BE0000846420018BFD2F1807288BF00F0004052
:102BF00010BDFF2141EAD050C005704751EA000CDA
:102C000000F113801CF5000F58BFBCF5000F01D474
:102C10008142704707D711F5000F58BF10F5000F1C
:102C200015D481427047894270471CF5000F04D5C6
:102C3000BCF5000FF7D5884270474FF0807C1CEB45
:102C4000410F38BF1CEB400F01D28842704780EA29
:102C5000010081EA000180EA0100FFF7F8BE0000F0
:102C600090EA010F48BF81F000413FF56AAD421A7A
:102C700004D882F00042A0EB020011444FEAD05287
:102C80004FF07F4C1CEA410FA2EBD15318BF9CEAD6
:102C9000026F4AD04FF0004C4CEA00204CEA012170
:102CA00021FA03FCB0EB0C0C0FD412F0FE0F36D05F
:102CB0005FEA4C001DD5001240EBC25038BF704790
:102CC0001CF03F0F18BF70470BE0A2F101025FEA52
:102CD0001C2040EBC25038BF70471CF07F0F18BF5C
:102CE0007047C3F12003994014BF401E20F001003B
:102CF000704780084FEA122308BF7047B0FA80FC83
:102D0000A2EB0C02CCF1280C60FA0CF093EA122F23
:102D100004BF00EBC25070474FEAC3707047130AFC
:102D20005FEADC1008BF7047F6E79CEA026F04D048
:102D300010EA5C0F08BF0020704710B5FFF713FFC3
:102D400040DFF63E81F000407047010202030405B7
:102D5000060708090A0B0C0D0E0F101000000000EA
:102D6000000000000102030406070809000000003B
:102D700001020304942D000800000020240000003C
:102D800028010008B82D0008240000208C0800004D
:102D900044010008010000000100000010000000D4
:102DA0000000000000127A00000000000000000097
:082DB00000000000000000001B
:04000005080000ED02
:00000001FF
